:020000040800F2
:10000000000004200DEB000841E9000845E9000864
:1000100049E900084DE9000851E900085DEB0008D6
:1000200000000000000000000000000051930108E3
:1000300055E9000800000000E1920108D5670108B9
:100040005DEB00085DEB00085DEB00085DEB000870
:100050005DEB00085DEB00085DEB00085DEB000860
:100060005DEB00085DEB00085DEB00085DEB000850
:100070005DEB00085DEB00085DEB00085DEB000840
:100080005DEB00085DEB00085DEB00085DEB000830
:100090005DEB00085DEB00085DEB00085DEB000820
:1000A0005DEB00085DEB00085DEB00085DEB000810
:1000B0005DEB000859E9000865E900085DEB000800
:1000C0005DEB00085DEB00085DEB00085DEB0008F0
:1000D0005DEB00085DEB00085DEB000871E90008CE
:1000E0007DE900085DEB000889E900085DEB000888
:1000F0005DEB00085DEB00085DEB00085DEB0008C0
:100100005DEB000895E90008A1E900085DEB000837
:100110005DEB00085DEB00085DEB00085DEB00089F
:100120005DEB0008ADE90008B9E900085DEB0008E7
:10013000C5E900085DEB00085DEB00085DEB000819
:100140005DEB00085DEB0008D1E900085DEB0008FD
:100150005DEB00085DEB00085DEB00085DEB00085F
:100160005DEB0008DDE900085DEB00085DEB0008D1
:100170005DEB0008000000005DEB000800000000DF
:10018000E9E900085DEB00085DEB00085DEB0008A5
:100190005DEB00085DEB00085DEB00085DEB00081F
:1001A0005DEB00085DEB00085DEB00085DEB00080F
:1001B0005DEB000800000000F5E900085DEB0008B9
:1001C0005DEB0008000000005DEB00085DEB00083F
:1001D0005DEB00085DEB00085DEB00085DEB0008DF
:1001E0005DEB00085DEB00085DEB00085DEB0008CF
:0401F000000000000B
:1002000010B5054C237833B9044B13B10448AFF350
:1002100000800123237010BD0804032000000000AB
:10022000FC9E010808B5034B1BB103490348AFF31B
:10023000008008BD000000000C040320FC9E0108A3
:10024000034613F8012B002AFBD1181A0138704716
:10025000704700BF30B5214C214D83B04FF0FF33C4
:10026000022220680DF1060117F04CF9022807D090
:100270002B78012B29D001211A480DF0C3FDEDE7A1
:1002800042F20303BDF806209A42F1D816494FF016
:10029000FF33206817F036F9BDF806108142E7D128
:1002A000114807F079F80028D8D12B78BDF806104E
:1002B000012B0D480DD005F045F90128CED12B7842
:1002C000B3FA83F35B092B70C8E708480DF008FE0A
:1002D000C4E703F0C7FE0128C0D1F0E728050320DA
:1002E000FC04032028AB010840B8002008AB01083B
:1002F0002DE9F04F864C9BB0DFF83082854F864E5B
:100300000AAD4FF0FF3328226946206817F0FAF84B
:100310002828F6D103980DF07FFF8346002840F08F
:100320009A80029B002B77D10098D8F80030984231
:1003300000F099802A46594607F0CEF817F096FE4D
:1003400029460246684607F0F1FF17F08FFE29465E
:10035000024668460AF05EFB17F088FE2946024610
:10036000684606F0FFFF3B78002BCAD0069BB3F52A
:10037000001F00F086800121BBF1080F28BF4FF05D
:10038000080B002289465FFA8BFBDDE9013000286B
:100390006FD13144002B00F0AA805420B054009853
:1003A0000DF0E2FD09EB00035FFA83F9069A06EB14
:1003B0000901B2F5001F6FD00BF00F000DF052FED7
:1003C00009EB00035FFA83FABBF1000F0CD0A946DA
:1003D000AB4419F8010B06EB0A010DF033FED945C9
:1003E00050445FFA80FAF4D1FA78002A5ED17A7923
:1003F0001AB1069AB2F5001F7DD00D220AF1010153
:100400004548C9B206F80A200DF0FCFC00283FF46C
:1004100078AF00233B7074E7B3F1005F9CD1009B81
:10042000B3F5E06F98D13D4801990360039B4160AB
:10043000082B28BF08231A460023C260C0E90533F1
:1004400083600822364937480DF0F2FE35493348BB
:1004500003F068FC80E702464FF0FF33294620682E
:1004600017F050F85DE73049304803F05BFC009826
:1004700060E77BB352204FF0000BB054314400983A
:100480008EE7059B0221B3F5801F14BF3023312373
:1004900001228946337078E7039800F00F000DF0D1
:1004A000E1FD09EB00035FFA83FA8DE717F0DEFD4B
:1004B0004EF6602C1E4B06EB0A01A3FB00E2920BEA
:1004C0000CFB120080B20DF09BFD0AEB00035FFAFB
:1004D00083FA8CE772209B46B0540098314480B276
:1004E0000DF078FD09EB00035FFA83F95EE77420F5
:1004F000B0540098F3E7049AB2F1004F7FF47DAF57
:1005000069220AF1010306F80A205FFA83FA74E708
:10051000A43803208401032040B6002038040320BF
:100520009005FA0B2C040320F8390320003A03202D
:1005300073B2E7452DE9F0431F4D9BB0DFF8808093
:1005400001AE0AAF002404EBC401C4F124024FF051
:10055000FF33286806EB810116F0D4FF0444232CF6
:10056000F1D904980DF058FE039B8146B3F1005F6A
:1005700000D0A0B911480FF005F950B13A46314604
:100580000E480EF0BFFFD8F80C300133C8F80C301D
:10059000D8E74FF0FF32012118F0FEF8EAE7002417
:1005A000A9EB040239194FF0FF33286816F0AAFFAF
:1005B00004444C45F4D3DDE7A03803200828032089
:1005C00010000320F0B583B006F02CFF03F0AEFA64
:1005D00007F0ACFF00F0D8FD0BF0D8F817F046FD9F
:1005E00006F0B8FE214813F083F8214813F048F8CC
:1005F000204921480AF046F9204D08F0DBFF204E43
:10060000204F05E001330CD10A2101A817F0C0FBEF
:1006100017F02CFD32682B6801320190F2D10133C2
:100620000BD04FF47A7401E0013CEDD02846164916
:1006300003F078FB0028F7D0E6E70BF0A5F8019867
:100640000BF0AAF8019800F0A1FD3B784BB101989E
:1006500006F0A4FE019807F067FE01980AF028F959
:10066000D2E7019807F036F8F1E700BF40250320F4
:10067000A824032018180320A8260320D439032017
:10068000003A032092000320CC3903202DE9F043E7
:1006900000262B4DDFF8B490DFF8B480294FA7B0C7
:1006A00016E0630203D52B7943F080032B7198F891
:1006B000003033B10B9B23B1642016F067F903F0CF
:1006C00035FA0022022311463868009618F0E6F841
:1006D0004FF0FF320121002018F05EF818F094FC72
:1006E00019480FF0A5F9044606A917480FF006F8B7
:1006F00002A915480FF02AF85422294611A8AC6027
:1007000019F0A4FB104B1E66189BB3F5003F02D9ED
:10071000AB689A020CD418F085FC99F80030012BD4
:10072000BFD1234611AA06A902A807F007F9B8E726
:10073000012385F820300B9303F082FAEBE700BF2A
:1007400010000320C81C032008280320103E0320AB
:100750002804032000232DE9F04385B05B4C5C4E58
:10076000DFF878815B4D0DF10E078DF80B3005E059
:1007700000214FF0FF32084618F00EF8206816F0FE
:10078000CBFD0028F4D04FF0FF33012220680DF19B
:100790000B0116F0B7FE0128EAD1206816F0BCFD67
:1007A0000128E5D94FF0FF330222206803A916F093
:1007B000A9FE0228DCD1BDF80C20B2F5845FD7D8A1
:1007C000002A56D19DF80B90B9F1000F16D117F001
:1007D0004DFC414B3146BDF80C2000970DF044FA1A
:1007E000BDF80E30002B57D117F040FC31463A4B84
:1007F000BDF80C2000970DF087FAB9E717F036FC2A
:10080000354B3349BDF80C2000970DF055FABDF873
:100810000E3023B330490A787F2A08D1022B1ED923
:100820008B78A3F11102012A19D9312B17D04FF07F
:10083000FF3302223946D8F8000016F07BFD4FF056
:10084000FF332549BDF80E20D8F8000016F072FDE0
:100850000022022311462868009218F01FF817F0B2
:1008600005FC1D4B1A49BDF80C2000970DF04CFA01
:100870007EE74FF00009A2EB090206EB09014FF0F9
:10088000FF33206816F03EFEBDF80C2081441FFAAD
:1008900089F94A45EFD195E739464FF0FF330222F7
:1008A000D8F8000016F046FDBDF80E204FF0FF33DB
:1008B0000949D8F8000016F03DFD02234A46494692
:1008C0002868CDF8009017F0E9FF8DE76804032051
:1008D000BCA50020080A03203895002064040320EA
:1008E0002DE9F843294E2A4DDFF8B08006F19C0728
:1008F00006F5805905E000214FF0FF32084617F059
:100900004BFF286816F008FD0128F4D94FF0FF339B
:1009100002222049286816F0F5FD0228EBD1B6F82E
:100920009420B2F5845FE6D86AB10024121B39190D
:100930004FF0FF33286816F0E5FDB6F89420044424
:10094000A4B2A242F2D117F091FB0146124808F07E
:1009500073F90028CFD117F089FB0DF08DF801282D
:10096000C9D0286816F0D8FC0128C4D898F80030FF
:1009700053B199F8230116F009F817F077FB0DF041
:100980007BF80128B7D0ECE70A20F4E7903E02207C
:1009900064040320243F0220902E022092000320B2
:1009A00010B50C490C480DF0E9F90A4A0B490C48FE
:1009B00018F0DAFE084C0B494FF0FF334FF4006299
:1009C000206816F09FFD01460028F4D005480DF080
:1009D000EDF9F0E758050320000503207C210320F2
:1009E0002805032044D8002006F0EABC002006F0C9
:1009F000EBBC00BF0022024B02481A6012F078BE26
:100A000024040320F4240320014B1868704700BF1E
:100A1000240403200000000010B59EB048220021ED
:100A20000CA819F071F900234FF40070CDE90233DE
:100A3000CDE90433CDE90733CDE9093301930693BA
:100A40000B9310F0E7FF08B172B6FEE70123022214
:100A5000169311931993179210231D9207229FED5D
:100A60001E7BCDE91A320324042312900CA81C9398
:100A70008DED0C7B189411F009FA034608B172B69B
:100A8000FEE70F22214601A8CDE903330593029426
:100A9000019211F0A7F8034608B172B6FEE7104ABA
:100AA0004FF0005C916D4BF67F3441F080719165A1
:100AB000926D069302F08072009208932222202306
:100AC00006A8CDE90A230099CDF81CC0099412F0BC
:100AD0003DF91EB010BD00BF29000000000001005C
:100AE000001002402DE9F04194B072B64FF0006260
:100AF000AC4B9A60BFF34F8F62B600240EF030F813
:100B000008F064FEFFF788FFCDE90F44CDE91144FA
:100B1000A54D1394EB6C4FF4604143F00403EB6478
:100B2000EB6C224603F004030893089BEB6C9F4890
:100B300043F08003EB64EB6C012603F08003099320
:100B4000099BEB6C4FF4007843F00103EB64EB6C12
:100B5000082703F001030A930A9BEB6C43F002039E
:100B6000EB64EB6C03F002030B930B9B0FF0FEFBAB
:100B7000224640F201118E480FF0F8FB224641F266
:100B8000E4018C480FF0F2FB4FF4604387480FA953
:100B9000CDE90F36119412940FF034FA40F201139C
:100BA00083480FA9CDE90F36CDE911440FF02AFA99
:100BB00041F2E4037F480FA9CDE90F36CDE9114496
:100BC0000FF020FA7A480FA9CDE90F8411960FF0A3
:100BD00019FA79480FA9CDE90F7411940FF012FAA0
:100BE000AB6C052143F00403AB64AB6C224603F00D
:100BF00004030593059BAB6C1D203343AB64AB6CC6
:100C000033400693069BAB6C43F00203AB64AB6CC2
:100C100003F002030793079B0DF0D8FF1D200EF091
:100C20000FF8224605211E200DF0D0FF1E200EF0E9
:100C300007F82246052150200DF0C8FF50200DF086
:100C4000FFFF20460FF01AFF08B172B6FEE70FF063
:100C500029FF034648B959484360594B036012F0D5
:100C60009DF8034618B172B6FEE772B6FEE7102291
:100C70004FF4407E4FF03C0C042113250F245148C3
:100C800082618262504A4360C3608374C36313709D
:100C90004E4BC0E907C50360C0E90B41C0E90D66D2
:100CA000068246614662C0F808E00EF05DFA03462F
:100CB00058BB07224FF0FF314FF482754FF4E064C8
:100CC0004348C0E90A32434AC0E90433C2E9053364
:100CD000C2E90133D36011603F4AC0E90833C2E979
:100CE0000533C2E9013383600363D3603B4BC0F833
:100CF00018800360C76147634560C460116012F0EB
:100D000071FA034618B172B6FEE772B6FEE73448D0
:100D1000344AC0E905338380026006620DF0C2FFE9
:100D2000034608B172B6FEE74FF4027102222E4864
:100D3000C3722E4B81800360C0F807200FF0BCFE09
:100D4000034608B172B6FEE741F63F75284C294AC2
:100D5000CDE90F0011902046C4E90133A361226060
:100D6000E56012F0B5FE034608B172B6FEE7204614
:100D70000FA90F93119312F0DDFE034608B172B66E
:100D8000FEE71D481D4ACDE90F33026042F20F72A3
:100D9000C0E9023511938361426012F099FE78B385
:100DA00072B6FEE700ED00E00010024000080242CB
:100DB0000000024200040242001C02420C270320F1
:100DC00000080C42082803202804032000A4004047
:100DD000A8260320003A0320D4390320003800401D
:100DE0006C280320003002408021032000D4004002
:100DF000F42403200014004040250320001000408C
:100E0000002395480FA90F93119312F093FE034608
:100E100008B172B6FEE74F254FF6FF748F48C0E960
:100E20000433836083618E4BC460C0E9003512F0E7
:100E30004FFE034608B172B6FEE78A48C0E9015387
:100E4000C0E90343C0E90533874B036012F040FE5D
:100E5000034608B172B6FEE74FF080414FF0FF3213
:100E6000824CCDE90F00CDE91100C4E901000CADC1
:100E70000C902061A0612046C5E901332160E26049
:100E800012F026FE08B172B6FEE74FF480532046FA
:100E90000FA90F9312F06AFC034608B172B6FEE781
:100EA000204629460C930E9312F044FE044608B1E6
:100EB00072B6FEE76E486F4900902246CDE90144C4
:100EC0006D4B0C7043F69820012116F0CDF90546C4
:100ED0006A4E6B4A00960121CDE90144694B1560C9
:100EE00043F69820224616F0BFF90546664E674A3B
:100EF00000960121CDE90144654B156041F20100E6
:100F0000224616F0B1F90246624E634D0096012169
:100F1000CDE90144614B2A6041F20100224616F0FE
:100F2000A3F95F4B5F4A01210092CDE901442246BB
:100F300018605D4B43F6982016F096F95B4B5C4ABF
:100F400001210092CDE9014422461860594B43F635
:100F5000982016F089F9584B584E1860204607F033
:100F6000B1FA204607F0C8FA07F01AFB17F07EF82E
:100F70002A46534B5349009607F0C4F952480AF0E9
:100F800081FF524806F008F95148524A524902F08E
:100F9000B3FD0FA80F9407F051FA10B90F9B002B67
:100FA00055D015F025FC18F0CBFA00214B4A4C48DF
:100FB00015F06EFC04464B4B00214B4A4B481C601D
:100FC00015F066FC04464A4B00214A4A4A481C6018
:100FD00015F05EFC0446404B0021484A48481C601E
:100FE00015F056FC0446474B0021474A47481C6011
:100FF00015F04EFC0446374B0021454A45481C601D
:1010000015F046FC04462F4B0021434A43481C6020
:1010100015F03EFC0446424B0021424A42481C6007
:1010200015F036FC0446414B0021414A41481C6002
:1010300015F02EFC0446404B0021404A40481C60FD
:1010400015F026FC3F4B186015F0F4FBFEE73E4818
:1010500007F0CCF9A5E700BF40250320A824032012
:10106000004401405C240320004801408C250320FB
:101070002C050320FC040320DC1A012004050320B6
:101080002805032044E00020D804032000050320A5
:1010900034850020B4040320680403203075002048
:1010A0006404032090040320983A0020A43803200D
:1010B0006C04032000000020A03803205C040320FF
:1010C00060040320B80E03200C2703206C280320A3
:1010D0000828032068130320C81C0320F8DE010839
:1010E000550200087C210320D4DE0108F10200082B
:1010F00078210320B0DE0108350500088CDE0108E8
:10110000C50500081818032068DE01088D060008D0
:1011100044DE01085507000820DE0108E108000848
:10112000080A0320FCDD0108A10900085805032076
:10113000D8DD0108E909000854050320B4DD0108E1
:10114000ED09000850050320040029C0094A03687E
:10115000934206D0084A93420AD0084A934205D0E7
:101160007047074A136801331360704706F020B9CF
:101170000DF008BD00140040002C0140001000409C
:101180002404032072B6FEE7704700BF034B044AF5
:101190001B68D07D1B6803491B6D18473401032071
:1011A000700003204C3D032040F69E732DE9F0476C
:1011B000DFF89CA02349244ADAF80040B1F800E0A7
:1011C00012889C4204FB0E2238D800204FF0804148
:1011D00040F69F764FF030083127DFF878901B4DAE
:1011E00009EB040C4B6A9342FCD32B69013013F4D6
:1011F0008073C0B204F1010472440ED118468CF819
:101200000080B4420CF1010CECD10120CAF800407E
:10121000002309F80430BDE8F0870A288CF8007034
:10122000EFD9142C02D80CF1010CDBE7002309F8EC
:1012300004300020CAF80040BDE8F0870120DFF844
:101240001490E5E70A00032008000320000402428E
:10125000FC2803200029032070B500244FF08041B2
:1012600001254FF6FF7086B0CDE90044CDE9024478
:1012700004940A681A4E22F001020A603288194B5F
:10128000013A8A624C624D610A682A430A601A6810
:1012900022F001021A6098625C625D611A682A435A
:1012A0001A6002F0CDFC2A464FF400710E480FF090
:1012B0005DF84FF48072002369460B48CDE90023A6
:1012C00002940EF09FFE4FF4007303226946064815
:1012D000CDE90035039202940EF094FE06B070BD85
:1012E0000C0003200048014000040242F0B5BDF8A4
:1012F0001440012C45D94FF0300C0127013C83F8F4
:1013000000C000293FD10A263D4604E08C467546C0
:101310000127013E15D320FA06F101F0010105F184
:10132000010EA54201F130011FFA8EFE29DA8C452B
:101330005955EBD10137FFB2052F4FD0013E75460D
:10134000E9D2002A0CBF30263126A54219DA691CE1
:10135000B4455E5589B200F0C1800127A14210DA80
:1013600030224D1C9642ADB25A5400F0D980A542AD
:1013700007DA881C80B25A5500221A54F0BDA542E3
:1013800039DB0020F0BD1C263D4605E08C46754645
:101390000127013E112EF2D020FA06F101F00101E1
:1013A00005F1010EA54201F130011FFA8EFEE8DAC7
:1013B0008C455955EAD10137FFB2052F01D075464A
:1013C000E7E7CCF1610CA6455FFA8CFC05F102055C
:1013D000D7DA012703F80EC0ADB2DAE7CCF1610C21
:1013E000A6455FFA8CFC05F10205CADA012703F86D
:1013F0000EC0ADB28DE74FF0310E691CF44589B2D5
:1014000003F805E04FD0A142BBDA03F801E0A91CC4
:10141000F44602271FFA81FE04E08C46AE460127FF
:10142000013E22D320FA06F101F00101A64501F1A7
:101430003001A6DA0EF10105614503F80E10ADB2D8
:10144000EBD10137FFB2052F01D0AE46E8E7CCF172
:10145000610CA5425FFA8CFC0EF1020E91DA0127B5
:1014600003F805C01FFA8EFEDAE7002A0CBF30250C
:101470003125A64585DA0EF10102AC4503F80E5080
:1014800092B262D00121A242BFF67BAF3027561C38
:10149000BD42B6B29F5477D0A642BFF672AF0232B9
:1014A00090B29F5568E7042F28D0A142BFF669AFDC
:1014B0000237FFB205F1020E052F03F801C01FFA33
:1014C0008EFEAFD1A645BFF65CAF4FF0300C0335B2
:1014D00003F80EC001271FFA85FEA3E70137FFB20C
:1014E000052F7FF43BAFA142BFF64BAFC6F16106BB
:1014F000F6B202355E540127A9B22FE7A142BFF62A
:1015000040AF30275F54A91C89B28C427FF739AFB6
:1015100005F1030E012703F801C01FFA8EFE81E7D3
:101520007A1CD2B2052A21D0A542BFF62AAF881C68
:10153000042A5E5580B27FF41FAFA042BFF621AFF0
:10154000312203311A5488B216E7791CC9B2052931
:1015500099D1A242BFF615AFC5F16105EDB20EF10A
:10156000020E9D5401211FFA8EF28CE7A542BFF6B0
:1015700008AF31225A558A1C92B294427FF701AFCC
:10158000C81C80B29E54F7E60131C9B2052910D0BB
:10159000A642BFF6F6AE9D55042902F10205ADB292
:1015A00015D1A542BFF6EDAE3121033290B25955A7
:1015B000E2E6A642BFF6E5AE31219955911C89B20B
:1015C000A142BFF6DEAE033290B25D54D4E62846A7
:1015D000D2E600BF4B4B1868831C70D02DE9F04F4A
:1015E000C71C91B077D0411C02D14FF000090BE02D
:1015F0003024454B454A1978127804AB0094FFF724
:1016000075FE8146002860D04FF0804C404B414A27
:101610001B88B2F800A003933F4B0AEB8A0E1F8889
:101620003E4B3F491C683F4E4FEA4E0E0B69DA05B0
:10163000FCD5DCF8242092B20B69DB05F6D5DCF88A
:1016400024309B1A9E45F7D80B6913F4807306D09B
:10165000736ABB422DD80B6913F48073F8D1CCF8B0
:101660002430B9F1000F1AD01C464FF08040039A85
:10167000DFF8B880DFF8A8B004AD436A9342FCD32A
:10168000DBF81030524413F4807F15F8013B0DD085
:10169000312BCBD10134A14508F8013BEDD11F4BD3
:1016A000C3F80090002011B0BDE8F08F302BF1D0CE
:1016B000BCE70120194B1C6011B0BDE8F08F4FF062
:1016C0008043002200205A62704717480CF008FC43
:1016D0004FF0000998E74FF080440E4B104A1888ED
:1016E00000EB800040001369DE05FCD5616A89B219
:1016F0001369DD05F7D5636A5B1A8342F8D30023CB
:101700006362CFE704000320F9280320F8280320B0
:10171000080003200A00032000000320FC28032007
:101720000004024200480140C4AB01080029032024
:1017300002783AB34FF0000C30B563468646312547
:101740000BE02A2A07D10CF1010C1FFA8CFC8EF851
:10175000005000EB0C0EC25C82B1A2F130010133EB
:1017600001290CF101049BB2EBD88EF80020C25C79
:101770001FFA84FC00EB0C0E002AEED100238EF839
:10178000003030BD00230370704700BF70B50446C1
:101790000CF062FD14281ED900F1FF3E1FFA8EFEE8
:1017A00014F80E3004EB0E05312B2A4615D1831E9A
:1017B0009BB200EB040C0CEB03002A262344A0EBA5
:1017C0000E0005E016701A461178013B312906D14A
:1017D000C11A0C29F6D9002070BD00EB040C0022C0
:1017E00020460126144610F8013BA3F130010129DF
:1017F0002FD862B386B3052A42D0A3420FD0312B33
:101800005ED0844515D010F8011B0122A1F13003F0
:10181000012B79D830231C460B46A342EFD101326D
:10182000312CD2B256D084454FF001064FF030042F
:10183000D9D10FFA8EFEBEF1000F06DB2A4615F84D
:1018400001392A2B58D05F2B37D0012070BD1C46A0
:1018500001228445C7D1ECE7A3420DD08445E8D0EE
:1018600010F8011B1C46A1F13002012A22D80B46B8
:10187000A3424FF00102F1D101320026D2B2E8E7D3
:10188000A342A8D05F23844500F8013CD1D0034691
:1018900013F8011BA1F13002012A20D86345C8D0FA
:1018A00043783246A3F13004012C00F102000C46CB
:1018B000A0D9CEE700260122CBE730231370C4E77E
:1018C0008445B6D010F8011BA1F13002012A1ED8C0
:1018D0000122A0E7062A8CBF00260126B9E763454E
:1018E000A7D01A780230A2F13003DBB2012B96BFE9
:1018F000144600223246ACE70EF1FF3E0FFA8EFE90
:10190000BEF1FF3F9AD1A0E730241646A1E701229D
:101910001C4616469DE700BF70B571B3002344F224
:10192000995600F1FF3C0CEB01051CF8012F5C00FF
:10193000A2F13102B2FA82F24FEA933E47F6FE7309
:101940005209724503EA040318BF7340AC45ECD159
:101950004A1E00F10E0C024400208C4412F8011FB4
:101960004000312908BF40F00100944580B2F5D114
:10197000C01AB0FA80F0400970BD0B46E8E700BF1E
:101980002DE9F04F8FB004460CF066FC122840F2AF
:101990004B812378302B05D0B4480FB0BDE8F04F11
:1019A0000CF09EBA074606AEB1480CF099FA002535
:1019B0003146234604F10B0C13F8012FA2F131003C
:1019C000B0FA80F09C454FEA501001F8012B40EA34
:1019D0004505F1D14FF00008A6488DF823800CF0A2
:1019E0007FFA06A80CF07CFAA3480CF079FA03A958
:1019F00028460CF0B9FA03A88DF814800CF070FAA0
:101A00009E480CF06DFA94F80CA09D48657B8DF80B
:101A100019808DF818A00CF063FA06A80CF060FA93
:101A200098480CF05DFA98488DF818500CF058FA68
:101A300006A80CF055FA93480CF052FA312D40F0FC
:101A4000FD80262F40F2F680454606AA04F10D01DE
:101A50000DF12A0011F8013F02F8013BA3F1310317
:101A6000B3FA83F390424FEA531343EA4505F1D1A9
:101A70004FF0000885488DF82A800CF031FA06A84E
:101A80000CF02EFA7C480CF02BFA03A928460CF037
:101A90006BFA03A88DF814800CF022FA77480CF04A
:101AA0001FFA94F820A07A488DF819808DF818A0B4
:101AB0000CF016FA06A80CF013FA72480CF010FAA3
:101AC00094F8213073488DF818300CF009FA06A804
:101AD0000CF006FA6B480CF003FA94F822306E48CA
:101AE0008DF818300CF0FCF906A80CF0F9F96548EF
:101AF0000CF0F6F92322002504F1040C06A8944406
:101B0000A11811F8013B00F8013BA3F13103B3FA2E
:101B100083F38C454FEA531343EA4505F1D14FF067
:101B200000095E4802F1040801928DF81C900CF047
:101B3000D7F906A80CF0D4F9EDB24F480CF0D0F963
:101B400003A928460CF07EFA03A88DF80E9008EB46
:101B5000C50B0CF0C5F949480CF0C2F90BF10F03A5
:101B6000BB42019A00F2E780BAF1300F00F0A68084
:101B7000002506A90BF1FF30204401F10F0710F8F2
:101B8000012F01F8012BA2F13102B2FA82F28F4249
:101B90004FEA521242EA4505F1D10027404801932D
:101BA0008DF827700CF09CF906A80CF099F93248D2
:101BB0000CF096F903A9A8B20CF022FA03A88DF84C
:101BC00010700CF08DF937480CF08AF95946204610
:101BD000FFF7A2FE019B002840D033480CF080F9AB
:101BE000019BE25CE118A2F13003012B98BF0123B5
:101BF00003D916E00133202B36D006F8012B11F85B
:101C0000012FA2F130000128F4D900226B442748AB
:101C10001A760CF065F906A80CF062F919480CF078
:101C20005FF90FB0BDE8F08F21480FB0BDE8F04F6D
:101C30000CF056B91F480CF053F9F2E7A37B164895
:101C40008DF818308DF819800CF04AF906A80CF0C0
:101C500047F90C480CF044F90F224CE71648019361
:101C60000CF03EF9019BBCE71F23CEE700AC010856
:101C700014AC010828AC010838AC010884D3010871
:101C800040AC010850AC010854AC010878AC010824
:101C900088AC010898AC0108A8AC0108B8AC0108F0
:101CA000F4AC010804AD010808AD01081CAD010841
:101CB000ECAB010864AC010810AD0108082D3FF63B
:101CC00057AF002D3BD06B1EDBB20C3202EBC30BC7
:101CD0000DF11F0700250DF1170204EB080111F8A3
:101CE000013B02F8013FA3F13103B3FA83F39742BA
:101CF0004FEA531343EA4505F1D113488DF820907C
:101D00000CF0EEF806A80CF0EBF810480CF0E8F830
:101D100003A9E8B20CF096F903A808F108088DF8B9
:101D20000E900CF0DDF80A480CF0DAF8C345D1D17A
:101D30000BF10F031CE707480CF0D2F871E7C3461C
:101D400002F1130314E700BFE4AC010838AC01084A
:101D500084D30108C8AC0108002800F0F98030B530
:101D600083B004460CF078FA0130235C25180BB9D7
:101D7000012038E0204677490CF086FA48BB20461F
:101D800075490CF081FA20BB204674490CF07CFAAE
:101D9000002856D1204672490CF076FA002862D00D
:101DA0000A2128460DF107020CF0D8FA9DF80730F9
:101DB000002BDDD04FF6FE73421E9A42D8D8694BF5
:101DC00080B21A886849824208800BD34008188084
:101DD00008E0284665490CF057FA30B16FF001026F
:101DE000634B1A60002003B030BD284661490CF0F7
:101DF0004BFA20B14FF0FF325D4B1A60F2E72846F4
:101E00005D490CF041FA20B16FF00202584B1A60A4
:101E1000E8E7102128460DF107020CF09FFA9DF823
:101E200007300446002BA3D0B0F1005FA0D2B0F57C
:101E3000006F03D3514B1A78002A50D04C4B1C60D2
:101E4000D0E70A2128460DF107020CF087FA9DF829
:101E50000730002B8CD04FF6FE73421E9A4287D873
:101E6000474B1880BEE7204646490CF00DFA90B16A
:101E70000A2128460DF107020CF070FA9DF8073090
:101E8000002B3FF475AF384B1B8883427FF670AF51
:101E9000344B1880A6E720463B490CF0F5F980B199
:101EA00028463A490CF0F0F9002837D0304B384A30
:101EB0001B68A3F50063934246D900222F4B1A708A
:101EC00090E7204633490CF0DFF970B128462F49DE
:101ED0000CF0DAF968B300222F4B1A7082E7012266
:101EE0002E481A700BF0FCFFA8E720462C490CF096
:101EF000CBF900283FF43CAF0DF107020A21284638
:101F00000CF02CFA9DF80720002A3FF431AFB0F511
:101F1000803FBFF42DAF234A108063E72846224953
:101F20000CF0B2F900283FF423AF0122134B1A70D2
:101F300058E728461C490CF0A7F900283FF418AFD1
:101F40000122154B1A704DE718480BF0C9FF0FE737
:101F5000012070472CAD010838AD010878AD0108AB
:101F600084AD0108080003200A00032034AD0108F5
:101F70000400032040AD010844AD0108F928032006
:101F80000C00032090AD0108A0AD0108ACAD010824
:101F9000FFF7FF1FDCAD0108F82803204CAD010856
:101FA000E0AD010800000320D8AD0108B0AD010884
:101FB00010B5364884B00BF093FF354B01A9188853
:101FC0000CF0FAF901A80BF08BFF324C32480BF001
:101FD00087FF32480BF084FF01A920680BF0C4FF93
:101FE000002301A88DF80C300BF07AFF2368991CB0
:101FF00040D05A1C42D0033344D029480BF070FF24
:10200000284B01A918780CF0D7F901A80BF068FF4C
:1020100025480BF065FF254B01A918780CF0CCF989
:1020200001A80BF05DFF22480BF05AFF214B01A9DC
:1020300018880CF0C1F901A80BF052FF1E480BF0F4
:102040004FFF1E4B01A918880CF0B6F901A80BF040
:1020500047FF1B480BF044FF1A4B01A918880CF0EE
:10206000ABF901A80BF03CFF17480BF039FF00203B
:1020700004B010BD15480BF033FFBEE714480BF059
:102080002FFFBAE713480BF02BFFB6E7E8AD0108C6
:102090000000032004000320F4AD0108FCAD01089A
:1020A0001CAE0108F928032028AE0108F8280320F7
:1020B00030AE01080C00032054AE01080A000320D2
:1020C00064AE01080800032050AC010804AE01080A
:1020D0000CAE010814AE01082DE9F0410026104DA8
:1020E000104FFFF7B9F86E626A6A3B889A4212D2C3
:1020F0004FF08044DFF83480B8F800206662636AED
:102100009342FCD34FF4007107480EF035F96A6A28
:102110003B889A42F0D301F009FD0020BDE8F08130
:102120000048014000000320000402420A0003208E
:102130002DE9F04F7A4B91B01B88B3F57A7F60D9C7
:10214000FFF78AF872B6774B1868831C00F0D780C7
:10215000C71C6DD0411C5BD14FF000094FF0804C83
:10216000714B724A1B88B2F800A00393704B0AEBC4
:102170008A041D686A4B6F49B3F800E06E4F640033
:102180000B69DA05FCD5DCF8242092B20B69DB057B
:10219000F6D5DCF824309B1AA342F7D30B6913F46D
:1021A000807307D07B6A734500F2B1800B6913F42A
:1021B0008073F7D1CCF82430B9F1000F1AD01D4646
:1021C0004FF08040039ADFF88C81DFF868B104AEED
:1021D000436A9342FCD3DBF81030524413F4807FFF
:1021E00016F8013B0AD0312BCAD10135A94508F8B0
:1021F000013BEDD14E4BC3F8009032E0302BF4D0D0
:10220000BEE74E480BF06CFE002011B0BDE8F08F29
:1022100030244B4B4B4A1978127804AB0094FFF7EB
:1022200065F88146002899D147480BF059FE93E79D
:102230004FF080443D4B3F4A188800EB800040003F
:102240001369DE05FCD5616A89B21369DD05F7D52E
:10225000636A5B1A8342F8D300236362304BB3F89E
:1022600000E00026344D6E626B6A73452FD22E4B10
:102270004FF08041B3F800C02C4B2E4C1F8802E079
:102280006B6A73452ED2236913F48073F8D16246CA
:102290001846D5F824804B624B6A9342FCD32369DD
:1022A000013013F48073C0B219D00B283A44F3D133
:1022B000A2EB0C024B6A9342FCD36B6AA3EB0803BC
:1022C0001E446B6A7345DED3204B03FB06F662B6F1
:1022D00001F02CFC124B1B88B6FBF3F095E7184677
:1022E0003A44D9E762B601F021FC184B0C4A06FBD0
:1022F00003F31088B3FBF0F011B0BDE8F08F4FF09E
:10230000804300225A62064BB3F800E0A9E7084B6D
:102310001D6062B60E480BF0E3FD01F007FC73E7A9
:102320000000032004000320080003200A0003200B
:10233000FC280320000402420048014078AE010856
:10234000F9280320F8280320C4AB0108A086010067
:1023500094AE0108002903202A4B70B51B68033393
:10236000012B37D9FEF778FF72B60022264B5A624E
:10237000FFF730F928BBFEF717FF044600283AD1D3
:1023800062B6224E3368072B2ED9214D28460BF01A
:10239000A7FD20480BF0A4FD33682846EC54FFF756
:1023A000F5F9D8B128460BF09BFD1B480BF098FDC2
:1023B0002846FFF7BDF9FFF7E3FA01F0B7FB204627
:1023C00070BD62B615480BF08BFD01F0AFFB012428
:1023D000204670BD12480BF083FDF8E711480BF062
:1023E0007FFD01F0A3FBF3E70F480BF079FD01F04F
:1023F0009DFB204670BD62B60C480BF071FD01F0EC
:1024000095FBE4E70400032000480140FC2803207A
:102410000029032028AF010840AF0108DCAE010805
:10242000A8AE010830AF010810AF0108F8AE0108EE
:102430002DE9F04F91B0FEF70FFF72B600254FF077
:10244000804270497048714B556205604D62186852
:10245000811C00F0A180C31C00F0B380421C7FD11E
:10246000AB464FF0804E6A4B6A481E886A4B06EBBB
:1024700086041A88694BDFF88C81B3F800906400F9
:102480000369DB05FCD5DEF8241089B20369DF059A
:10249000F6D5DEF824305B1AA342F7D3036913F4B0
:1024A000807307D0D8F824304B457ED8036913F4E5
:1024B0008073F7D1CEF82430BBF1000F00F09B8081
:1024C0001D46574B11469A464FF0804703930DF136
:1024D000100C7B6A8B42FCD34E4B31441B6913F4C6
:1024E000807F1CF8013B54D0312BC9D10135AB455D
:1024F0000AF8013BEDD1444B06FB0B22C3F800B0B8
:1025000040F69E739B451AD84FF080414FF0300C37
:102510003127039B0BF1FF30424D3E4C18444B6A70
:102520009342FCD32369DB052DD500F8017FA84237
:102530003244F4D140F69F739B46334A1360002423
:10254000039B03F80B4062B601F0F0FA34480BF03D
:10255000C7FC35480BF0C4FC204611B0BDE8F08F35
:10256000324B334A197830231278009304ABFEF7CC
:10257000BDFE834600287FF474AF2E480BF0B0FCFC
:10258000214B1D686DE700F801CFA8423244C6D147
:10259000D0E7302BAAD073E71D4B1F491E88204B74
:1025A0005562AB460A880393AEE7174B1D6062B6CF
:1025B00021480BF095FC01F0B9FA012011B0BDE8FB
:1025C000F08F134B13491E8806EB860464000B69D9
:1025D000DF05FCD5506A80B20B69DD05F7D5536A7B
:1025E0001B1AA342F8D300230B490D489B460390C6
:1025F00053620A8888E70A4B0393034BC3F800B081
:1026000082E700BF00480140FC28032004000320AB
:102610000A000320000402420800032000000320F7
:10262000002903209E38032050AC0108F92803201C
:10263000F8280320C4AB010894AE0108002800F07C
:1026400019812DE9F04F95B083460BF005FEB0F5EA
:102650007A6F28BF4FF47A60894E8146336803331E
:1026600040F0C480FEF7F8FD72B600254FF08044BC
:10267000844B65625D623068834B1D60831C00F093
:10268000E380C71C00F0C580471C00F0BA803023EF
:1026900000937E4B1A787E4B197808ABFEF726FE26
:1026A0008246002800F0AF807A4B4FF0804E1A88A7
:1026B00079491346098802EB8204059177497848E5
:1026C000B1F800806F4F64000169CE05FCD5DEF8DB
:1026D0002460B6B20169C905F6D5DEF82410891B5D
:1026E0008C42F7D8016911F4807107D0796A4145AD
:1026F00000F2B480016911F48071F7D1CEF8241092
:10270000BAF1000F00F0B8804FF0804C0D466549DB
:10271000059E0691049108A903910794DCF8241002
:10272000B142FBD35E49039C0969164411F4807FD2
:1027300014F8011B039460D0312960D1049C013549
:1027400004F8011BAA450494E8D10599002411441A
:1027500018464FF080424FF4007E4FF0300840F6AC
:102760009F7C494D504E4E4F2C60556A8542FCD39C
:10277000A1453FD91BF80450312D3BD0302D04D159
:102780004FF0007A464DC5F818A0556A8D42FCD32B
:102790003D690134ED0544BF312506F8015F3A4D2E
:1027A00058BF06F8018F64452C6018441944DCD1E9
:1027B0004FF47A6000224FF0804100FB03F306984B
:1027C00080F89F2F4A6A9A42FCD34FF40072344B30
:1027D0009A6162B601F0AAF932480BF081FB3348E6
:1027E0000BF07EFB002015B0BDE8F08F30480BF0F9
:1027F00077FB37E7C7F818E0C7E730299ED0079C7A
:1028000062E7AA4650E72B480BF06AFB1E4B1D6897
:102810004AE7204B224D1A88134602EB82014900F9
:102820002869C605FCD5666AB6B22869C005F7D521
:10283000606A801B8842F8D30021616216490988CA
:1028400005911849069180E7124A134B12881B889C
:102850001449656205930691134676E70A4B1D609D
:1028600062B615480BF03CFB01F060F9012015B091
:10287000BDE8F08F012070470A49069165E700BF67
:102880000400032000480140FC280320F82803200E
:10289000F92803200A000320080003200000032079
:1028A0000004024200290320FF28032050AC010845
:1028B00050AF0108C4AB0108DCAE01082DE9F04FB0
:1028C00091B0FEF7C9FC72B600229C499C4B4A624B
:1028D0001868831C00F01881C71C00F04981441C53
:1028E00002D14FF0000E0CE03024964B964A197836
:1028F000127804AB0094FEF7F9FC8646002800F03D
:1029000017814FF08044914A914B1288B3F800C070
:102910000392904B904A0CEB8C05B2F800B01E6805
:102920008E49864F6D000A69D005FCD5606A80B279
:102930000A69D205F7D5626A121A9542F8D80A696F
:1029400012F4807207D07A6A5A4500F2D2800A697E
:1029500012F48072F7D16262BEF1000F00F025819F
:1029600016467F4A4FF080489146039802920DF137
:10297000100AD8F824208242FBD3784A60441269B6
:1029800012F4807F1AF8012B00F0AA80312ACAD1F4
:102990000136B64509F8012BEBD1039A0CFB0E2248
:1029A00000244FF0804040F69E764FF031083027EB
:1029B0006A4D416A9142FCD32969013411F4807156
:1029C0000AD1B64598BF029C624498BF04F80E70C5
:1029D0000C460EF1010EECE7B64598BF0299624431
:1029E00098BF01F80E80092C0EF1010EE1D1039978
:1029F000DFF848A1594EC3F800E0511A0393DAF802
:102A00002400584533D840F68E739E452FD8029B3C
:102A10000EF1FF351D4400204FF080434FF0310987
:102A20004FF030080EF101045F6A8F42FCD3052895
:102A300094BF4FF000774FF40077B7615F6A974219
:102A4000FCD337696144FF0554BF05F8018F05F8D1
:102A5000019FDAF8247062445F4504EB000ECED883
:102A600001301028E0D1DAF824305B45CBD94FF0A3
:102A70008042039BC3F800E0536A8B42FCD32F4C87
:102A8000636A5B4518D84FF0804300274FF000760B
:102A90004FF400750CEB4C01304849004FEA0C1C18
:102AA0005F6286615A6A8A42FCD385615A6A6245CE
:102AB000FCD3626A5A45F3D9BEF57A6F14D200236B
:102AC000029A02F80E3062B601F030F824480BF09A
:102AD00007FA24480BF004FA002011B0BDE8F08F8B
:102AE000302A3FF455AF1EE70023029A82F89F3F39
:102AF000E9E71E6062B61C480BF0F2F901F016F827
:102B0000012011B0BDE8F08F4FF08045104C144EFD
:102B1000104B0E481049B4F800C002966A62028851
:102B2000D3F800E00392B1F800B00EFB0C2237E7B7
:102B30000E480BF0D5F94FF0000EE2E600480140D8
:102B400004000320F9280320F828032008000320AC
:102B50000A000320FC280320000003200004024296
:102B60000029032050AC0108DCAE0108C4AB010809
:102B70004FF080420F4B1048B3F800C00CEB8C01B3
:102B800049000369DE05FCD5546AA4B20369DD057A
:102B9000F7D5536A1B1B8B42F8D30024074D084B13
:102BA0000295084808495462B9E70449039A02911A
:102BB000F6E600BF0A0003200004024200290320B9
:102BC000FC28032008000320000003202DE9F04F1B
:102BD000A24C93B023680333012B40F21481834647
:102BE000FEF73AFB72B600264FF080429C4B5E62C5
:102BF0009C4B1E6056622068811C00F02581C31C1E
:102C000000F04A81421C72D134464FF0804C964B02
:102C1000DFF864A21D88954B05EB850E1B8894494F
:102C20000593944BDFF83882B3F800904FEA4E0ECC
:102C30000B69DB05FCD5DCF8242092B20B69DF05BB
:102C4000F6D5DCF824309B1A9E45F7D80B6913F4AF
:102C5000807308D0D8F824304B4500F2C6800B6949
:102C600013F48073F6D1CCF82430002C00F02E81C0
:102C70004FF080401E46804B06AF059A04930397A1
:102C8000436A9342FCD37A4B039F1B692A4413F493
:102C9000807F17F8013B03973BD0312BC8D1049FAD
:102CA000013607F8013BB4420497E9D16D4B1C6033
:102CB000059B05FB043300264FF0804240F69E7CC6
:102CC0004FF031094FF03008694F0BF1060E516A91
:102CD0009942FCD33969013611F4807104F1010085
:102CE0001AD1644521D90E4604462B44EFE7634BC5
:102CF0001A7830230093624B197806ABFEF7F6FA88
:102D00000446002881D15F480BF0EAF8554B1E6855
:102D10007BE7302BC3D08BE7644598BF0AF804905B
:102D2000B6452B4407D90446D1E70AF804800E467D
:102D300001342B44CBE701464FF08040059A9E1AA0
:102D4000426AB242FCD34FF000774FF08040484ACD
:102D50009761426A9A42FCD3454A0234126912F4DE
:102D6000807F40F69E7255D1914261D93D48944290
:102D700004602E442B4442D84FF080424FF4007C34
:102D80004FF031084FF0300E3F4F394C5144506AEC
:102D9000B042FCD3C4F818C0506A8342FCD8206902
:102DA000C0051BD401F801EFB9422E442B44EED1EB
:102DB00040F69F732B4A136040F69F7300220AF877
:102DC000032062B600F0B2FE2B480BF089F82F48C2
:102DD0000BF086F8002013B0BDE8F08F01F8018FEA
:102DE000B9422E442B44D2D1E2E71E4B28481C4660
:102DF0001E600BF075F82368B3F57A6FDED30023FD
:102E00008AF89F3FDDE723480BF06AF8012013B0F2
:102E1000BDE8F08F9142A9D8124A2E4414603122A5
:102E20000AF8012040F69F7294422B44A4D1C3E7D4
:102E30000C4A2E44146030220AF8012040F69F729A
:102E400094422B4498D1B7E7084B56621B88064A38
:102E500034461588DFF820A005932CE704000320F2
:102E600000480140FC2803200A000320080003203A
:102E7000000402420000032000290320F828032058
:102E8000F9280320C4AB01089E38032050AC010888
:102E900094AF010880AF01080D4B0E491D8805EB6A
:102EA000850464000B69DF05FCD5506A80B20B69AC
:102EB000DE05F7D5536A1B1AA342F8D30024064B4C
:102EC00054621B88DFF814A00593F4E6059BF2E634
:102ED0000A00032000040242080003200029032006
:102EE0009B4B2DE9F04F1B6893B00333012B40F24D
:102EF00024818146FEF7B0F972B60023DFF87CB278
:102F0000944ACBF82430DBF824301688B34280F0A2
:102F1000DA80914C09F1060900274FF080428C4B72
:102F200057621D688D4BA91C1F6000F0D680EB1CFA
:102F300000F0E480691C00F0CD8030230093884BC2
:102F400028461A78874B197806ABFEF7CFF98246E8
:102F5000002800F0CB8038464FF08047824BB3F812
:102F600000E0824B0EEB8E0C1B884FEA4C0C049356
:102F70002369DA05FCD57A6A92B22369DB05F7D5B5
:102F80007B6A9B1A6345F8D3236913F4807308D0D6
:102F9000DBF82430B34200F2CA80236913F4807353
:102FA000F6D17B62BAF1000F00F0C4804FF080418F
:102FB00018466F4B049A03930DF1180805954B6A58
:102FC0009342FCD32369724413F4807F18F8013BC9
:102FD0001FD0312B1FD1039D013005F8013B8245E5
:102FE0000395ECD1DDE9043500FB0E3200274FF0EC
:102FF000804101304B6A9342FCD32369013713F4BB
:10300000807300F1010C08D0B945724409D96046BB
:10301000F0E7302BDFD0059DAAE71F467244013050
:10302000E8E74FF080414D4B1860049BD21A4B6A81
:103030009342FCD34FF000734FF080417244A36180
:103040004B6A9342FCD34FF4007CC4F818C0DBF801
:103050002430B34237D202357FF45EAF4FF0804167
:103060004FF0000E4FF0007B3F4B3B4D1F883F4B16
:10307000DFF808A1B3F80080002442462046C1F8DA
:1030800024E0C1F824E04B6A9A42FCD82B69013055
:1030900013F4807358D0814504F101043A44F2D806
:1030A000A2EB08024B6A9A42FCD8C5F818B03A4421
:1030B0004B6A9A42FCD8C5F818C0DAF824309E4210
:1030C000DAD8264B1C6062B600F030FD002013B049
:1030D000BDE8F08F3846BA463EE7244B57621A885F
:1030E000214B3846B3F800E004927FE721480AF00C
:1030F000F7FE184B1E88194B18682DE71A4B164916
:10310000B3F800E00EEB8E077F000B69D805FCD505
:10311000506A80B20B69DB05F7D5536A1B1ABB42B4
:10312000F8D30020114B50621A8804925EE70B4BD3
:103130001860C8E75046049A58E70F480AF0D0FED6
:10314000012013B0BDE8F08F184601343A449AE7E5
:10315000040003200000032000040242FC28032096
:10316000F8280320F92803200A0003200800032080
:1031700000290320C4AB010880AF010800480140CA
:103180000870704700787047030A08704B707047EA
:10319000012994BF00780088704700BF012908D931
:1031A0004FF6FE2302889A4203D8981AC0F34F00C4
:1031B00070470020704700BF012911D94378FA2BCE
:1031C00007D8084AC3EB0330A2FB0020C0F30F105E
:1031D000704740F6FF72FF2B0CBF0020104670476F
:1031E00000207047D34D6210022907D94FF6FF73B4
:1031F000B0F80100984208BF0020704700207047D7
:10320000042907D94FF6FF73B0F80300984208BFAE
:103210000020704700207047012907D94FF6FF733F
:103220000088984208BF4FF4006070470020704744
:1032300001290ED94FF6FF730088984209D047F252
:103240007F53984238BF1846A0F5EA407F3880B2D5
:1032500070474FF400607047032986BFC078C0F301
:1032600081000020704700BF09B100787047084610
:10327000704700BF012906D9437803F00F03013BD3
:10328000DBB2022B01D900207047024A32F813004A
:10329000704700BF1CDF010819B10178C1F381003C
:1032A00070470846704700BF032986BFC07800F00A
:1032B00003000020704700BF034600B583B00846F6
:1032C0005BBA02220DF10601ADF806300AF0B0FF3C
:1032D00003B000BD8446002310B50C4682B00DF14A
:1032E000060002226146ADF806300AF0A1FFBDF8E3
:1032F0000600012C98BFC0B240BA80B202B010BD27
:10330000002300B5012983B0ADF8063002D8184675
:1033100003B000BD014602220DF106000AF088FF4D
:103320009DF8060003B000BD38B50D4604460822DE
:10333000FF2128460AF078FFB4F5FB4F0ADAC4F5FE
:10334000FA447F34640004F0FE03C4F307242B70B6
:103350006C7038BD002423466C702B7038BD00BFE4
:1033600038B50D460822FF21044628460AF05CFFC6
:10337000FA2204FB02F2044BA3FB0213D21A03EB62
:103380005203DB0A6B7038BD0101100038B50C46E2
:1033900005460822FF2120460AF046FF2B0A6570E9
:1033A000A37038BD38B50C4605460822FF212046DB
:1033B0000AF03AFF2B0AE570237138BD38B50C4688
:1033C00005460822FF2120460AF02EFF2B0A257011
:1033D000637038BD38B50C4608220546FF212046EB
:1033E0000AF022FF48F6802247F27F53954294BFAD
:1033F0005B199B189BB21A0A2370627038BD00BF1C
:1034000038B50D4604460822FF2128467D340AF0CF
:103410000BFFAC7038BD00BF38B50D46044608221E
:10342000FF2128460AF000FFEB78A40023F00C03EC
:1034300004F00C042343EB7038BD00BF38B50C46D4
:1034400005460822FF2120460AF0EEFE257038BD11
:10345000FF2838B50D460FD9C3B2002B0CBF01248D
:1034600003240822FF2128460AF0DEFE6B7823F0B1
:103470000F031C436C7038BD031E18BF01235C0092
:10348000EFE700BF38B50D4604460822FF21284665
:103490000AF0CAFE2B78A40023F00C0304F00C04FD
:1034A00023432B7038BD00BF38B50C4605460822B3
:1034B000FF2120460AF0B8FEE37805F0030523F06B
:1034C00003032B43E37038BD38B50D46044608228C
:1034D000FF2128460AF0A8FE012C0AD0022C05D0B4
:1034E000032C0CBFD723FF23AB7038BDC723AB70B1
:1034F00038BDC323AB7038BD38B50C46054608222D
:10350000FF2120460AF090FEEBB2022B12D0032BD3
:1035100009D0042B0CBF51230023FF2D88BF43F09B
:103520000403237038BD1123FF2D88BF43F004032B
:10353000237038BD0123FF2D88BF43F0040323709F
:1035400038BD00BF38B50C4605460822FF2120468D
:103550000AF06AFE15F0080F0CBF0021FA2115F0E1
:10356000100F0CBF0022FA2215F0200F0CBF002311
:10357000FA2315F0400F0CBF0020FA2015F0800F41
:10358000E0700CBF0020FA2015F0010F21700CBF75
:103590000021FA2115F0020F62700CBF0022FA22FE
:1035A00015F0040FA3700CBF0023FA232071617182
:1035B000A271E37138BD00BF022906D980787D3839
:1035C000C0B2812888BF002070470020704700BF2C
:1035D000032906D9C0787D38C0B2812888BF002071
:1035E00070470020704700BF02290FD9837803F08D
:1035F0000C02042A01D001207047C3F30113012BF0
:1036000006D0002B0CBF022001207047002070471D
:103610000320704707292DD903784278A3F1FA03D4
:10362000B3FA83F3FA2A4FEA531382784FEAC303BB
:1036300008BF43F01003FA2AC27808BF43F0200302
:10364000FA2A027908BF43F04003FA2A427908BFF8
:1036500043F08003FA2A827908BF43F00103FA2A73
:10366000C27908BF43F00203FA2A08BF43F00403FB
:10367000184670470020704700787047D9B103782A
:103680009A09012A0ED003F03002102A15D003F057
:103690000302012A14BF0120022003F00C03042BB3
:1036A00006D0704703F00C03042B4FF00400F8D150
:1036B00040F47F407047084670470320EDE700BFA5
:1036C000007870470078704700787047007870473E
:1036D000087070470870704708707047087070472E
:1036E0000870704738B50D460822FF210446284669
:1036F0000AF09AFDFA2204FB02F2044BA3FB021328
:10370000D21A03EB5203DB0A6B7038BD01011000C3
:10371000012911D94378FA2B07D8084AC3EB0330A3
:10372000A2FB0020C0F30F10704740F6FF72FF2B82
:103730000CBF00201046704700207047D34D621028
:10374000034600B583B008465BBA02220DF10601BC
:10375000ADF806300AF06CFD03B000BD034600B5BD
:1037600083B008465BBA02220DF10601ADF80630BF
:103770000AF05EFD03B000BD034600B583B0084605
:103780005BBA02220DF10601ADF806300AF050FDD9
:1037900003B000BD034600B583B008465BBA022201
:1037A0000DF10601ADF806300AF042FD03B000BD90
:1037B000034600B583B008465BBA02220DF106014C
:1037C000ADF806300AF034FD03B000BD034600B585
:1037D00083B008465BBA02220DF10601ADF806304F
:1037E0000AF026FD03B000BD034600B583B00846CD
:1037F0005BBA02220DF10601ADF806300AF018FDA1
:1038000003B000BD034600B583B008465BBA022290
:103810000DF10601ADF806300AF00AFD03B000BD57
:103820008446002310B50C4682B00DF1060002223A
:103830006146ADF806300AF0FBFCBDF80600012C2D
:1038400098BFC0B240BA80B202B010BD8446002317
:1038500010B50C4682B00DF1060002226146ADF8AB
:1038600006300AF0E5FCBDF80600012C98BFC0B296
:1038700040BA80B202B010BD8446002310B50C4699
:1038800082B00DF1060002226146ADF806300AF062
:10389000CFFCBDF80600012C98BFC0B240BA80B280
:1038A00002B010BD8446002310B50C4682B00DF165
:1038B000060002226146ADF806300AF0B9FCBDF8F8
:1038C0000600012C98BFC0B240BA80B202B010BD51
:1038D0008446002310B50C4682B00DF1060002228A
:1038E0006146ADF806300AF0A3FCBDF80600012CD5
:1038F00098BFC0B240BA80B202B010BD8446002367
:1039000010B50C4682B00DF1060002226146ADF8FA
:1039100006300AF08DFCBDF80600012C98BFC0B23D
:1039200040BA80B202B010BD8446002310B50C46E8
:1039300082B00DF1060002226146ADF806300AF0B1
:1039400077FCBDF80600012C98BFC0B240BA80B227
:1039500002B010BD8446002310B50C4682B00DF1B4
:10396000060002226146ADF806300AF061FCBDF89F
:103970000600012C98BFC0B240BA80B202B010BDA0
:10398000002300B5012983B0ADF8063002D81846EF
:1039900003B000BD014602220DF106000AF048FC0A
:1039A000BDF80600000A03B000BD00BF012918D908
:1039B000037803F00302012A17D003F00C02042A53
:1039C00015D003F03002102A0DD003F0C003402BB5
:1039D0000FD0437803F00303012B0CBF0620012016
:1039E0007047002070470520704702207047032071
:1039F00070470420704700BF2DE9F04F3A4B8346D3
:103A0000984283B007D8394B984260D94FF02809C3
:103A10004FF4487609E036494FF02509B1FBFBF138
:103A2000C9B2192940F2EE265BD90124304B01348A
:103A3000A4B2B3FBF4F1B1FBFBF1C9B21929F6D87A
:103A4000B4F5806F3FD201202A4BCDF804B01F6837
:103A500023186FF0004C4FF47A759B461FFA83FAD7
:103A6000A1F1020EBEEB510F4FEA51031ADD01F135
:103A7000FF385FFA88F805FB03F2B2FBF1F2B21AE5
:103A8000002AB8BF5242624509DA914507DB00209F
:103A90009446A8EB0302D2B2FB617C613A62013327
:103AA0007345E8DB124B1FFA8BF4B3FBFAF1019B71
:103AB000B4F5806FB1FBF3F10AF1010AC9B203D08A
:103AC00004F1010BCCE7012003B0BDE8F08F0849F9
:103AD0004FF02B09B1FBFBF1C9B2192940F26B364B
:103AE000A3D80124AFE700BF00350C0020A10700D8
:103AF000005A62029839032038B50C46064D074932
:103B0000074B0A602860074901201C6013F04CF93C
:103B1000054B186038BD00BF983903209039032049
:103B200094390320A8380320F838032030B53F4CDF
:103B300083B020680BF0D0FC20680BF015FB002848
:103B400051D100223A4D40213A482A71EA602A6157
:103B50006A61AA61AA60EA6185F820200CF006FC7F
:103B6000206805F124010BF0E9FB00285BD1324904
:103B700020680BF0E3FB002852D1002302222068CA
:103B8000114600930BF006FC002846D120680BF08C
:103B900047FC00283ED10022012120680BF0F8FDEF
:103BA000A8BB0022062120680BF0F2FD60BB0722B3
:103BB0004FF4F05120680BF0EBFD10BB0722802181
:103BC00020680BF0E5FDC8B900221C4920680BF005
:103BD000DFFD80B900224FF4602120680BF0D8FD92
:103BE00020B903B030BDFDF7CDFAAAE703B0BDE8B8
:103BF0003040FDF7C7BAFDF7C5FAEBE7FDF7C2FAAB
:103C0000E2E7FDF7BFFAD9E7FDF7BCFACFE7FDF72A
:103C1000B9FAC6E7FDF7B6FABDE7FDF7B3FAB5E7BF
:103C2000FDF7B0FAA9E7FDF7ADFAA0E79839032050
:103C300010000320000402424C00032000407100E9
:103C4000014B18680BF048BC98390320704700BF3F
:103C5000082824D8DFE800F0080C1014171A1D20DB
:103C600005001448FFF7C8BE42F21070FFF7C4BE4B
:103C700044F62060FFF7C0BE4CF25030FFF7BCBEE8
:103C80000D48FFF7B9BE0D48FFF7B6BE0C48FFF769
:103C9000B3BE0C48FFF7B0BE0B48FFF7ADBE0B4AF2
:103CA000A0F51C53103B934201D901207047FFF748
:103CB000A3BE00BF40420F00A086010048E80100FB
:103CC00090D0030020A1070000350C00301B0F002E
:103CD0000346054A1978002051615978D1619978D5
:103CE0001162DB7893617047082803200246024B7B
:103CF00000209A61704700BF08280320034600B5E2
:103D0000064A93F801E093F800C082F810E00449F5
:103D10009B7881F800C05374002000BD0828032060
:103D2000280403202DE9F047054682B0C0680F46FD
:103D30000AF072FAAB68B3F1005F3ED006468246E5
:103D400000F12409264C4FF0FF31206813F0EAF807
:103D50000128F8D1DFF89480D8F8000013F0C8FAF1
:103D6000484517D202251F4A13792B4313710023AC
:103D700020681A46194612F07BFF1B4A022312687C
:103D8000106800221146009214F088FD284602B007
:103D9000BDE8F08729464FF0FF332422D8F8000011
:103DA00013F0C8FA054686B94D450CD00D4A0125D9
:103DB000137943F008031371D9E74FF0000A4FF06D
:103DC00024095646BEE70025D1E7524639464FF052
:103DD000FF33D8F8000013F0ADFA0544E4E700BF64
:103DE000F83803201000032094390320A038032062
:103DF00030B40122002410200A4B04211B684FF428
:103E000040751C82C3E90520DC6018623F240F2046
:103E10009A74C3E90125DC61C3E9092130BC196347
:103E2000D8627047983903202DE9F04700250C46E9
:103E300082B0C9070646019516D4A20707D502210C
:103E4000314A137943F0010313713368196563072D
:103E500038D4019B2BB14FF0E0234FF08052C3F8D0
:103E6000042D02B0BDE8F087DFF8A890DFF8988055
:103E700040214A46254B0BF0A7FBD8F81430D9F85F
:103E80000C000133C8F814300AF0C6F9DFF888A036
:103E90000746DAF8000013F02BFA07F128039842DE
:103EA00024D349462822DAF8000001AB13F0DCFAEB
:103EB000002FC2D03A46DAF80000144901AB13F0E3
:103EC000D3FABAE70424104B11499A690868013201
:103ED0009A611A79002142F008021A713368006869
:103EE0000DEB04021C6514F0F9FDB2E7D8F81830A8
:103EF00029460133C8F81830054B01AA1B68186819
:103F000014F0ECFD99E700BF1000032050390320A6
:103F10009039032028390320A4380320002110B54C
:103F20000A4A0B4C1268236982B01068013301AA57
:103F30002361019114F0D2FD019B2BB14FF0E023DE
:103F40004FF08052C3F8042D02B010BD9439032005
:103F500010000320002110B50A4A0B4C1268E369D7
:103F600082B01068013301AAE361019114F0B6FD3B
:103F7000019B2BB14FF0E0234FF08052C3F8042D8A
:103F800002B010BD903903201000032038B50C4654
:103F9000104D29460BF0B2FBA10303D5EB68A3B982
:103FA0000D4A1360620309D52B690B4A012B137963
:103FB0000CBF43F0040303F0FB031371230303D589
:103FC0000122054B83F8202038BD4FF00042024B00
:103FD0001A60E7E7FC38032010000320F0B5002545
:103FE0000B7885B0074602950395CBB10C460DF1D1
:103FF000FF3608E02046D5B20AF0B2F814F8023FC6
:1040000006F8010F23B163786A1C0BB3072DF1D1B9
:104010008DF808502A4669460DF1090015F016FF83
:1040200000230E4C0820C4E90533C4E9013327609E
:104030000AF0F8F8082203460DEB02010848E36095
:104040000AF0F6F820460649FFF76CFE05B0F0BD11
:104050008DF80850002DDDD1E2E700BFA83903201C
:104060009C39032042F202032DE9F04300249942D7
:104070008BB0445400F2BA80002900F0808100F136
:10408000FF3E0139F4467346014405E00A2A1CBF8D
:10409000025501348B4209D013F8012F082AF5D1BB
:1040A000002CF7D08B4204F1FF34F5D10025AC424F
:1040B000055540F35E812A460EEB04031CF8011FF0
:1040C000202900F0898082B99C4505F101050CF199
:1040D00001010CD09CF80140202C7FD0994206D0E1
:1040E0001CF8022F203A18BF01229C45E6D1A549B1
:1040F00001AA0AF0FFF80446002800F08180A249D6
:104100000AF0C2F8002800F00F81012D40F3B180C1
:104110009C49002001AA0AF0EDF89C4904460AF0E7
:10412000B3F8002870D1204699490AF0ADF800286C
:1041300000F0A481974809F0D3FE974809F0D0FE1B
:10414000944809F0CDFE954809F0CAFE944809F05C
:10415000C7FE924809F0C4FE924809F0C1FE924899
:1041600009F0BEFE8D4809F0BBFE904809F0B8FE8C
:104170008F4809F0B5FE894809F0B2FE8D4809F074
:10418000AFFE8D4809F0ACFE844809F0A9FE8B48CB
:1041900009F0A6FE8A4809F0A3FE8A4809F0A0FEAD
:1041A000894809F09DFE894809F09AFE884809F07F
:1041B00097FE884809F094FE874809F091FE8748E9
:1041C00009F08EFE754809F08BFE724809F088FEF2
:1041D000834809F085FE0CE0002286E7994286D0EC
:1041E0001CF8021F20297FF46FAF7EE77D4809F09D
:1041F00077FE7D4809F074FE00200BB0BDE8F08327
:104200007A4809F06DFEF4E7624809F069FE6248F9
:1042100009F066FE5F4809F063FE604809F060FE41
:10422000734809F05DFE5D4809F05AFE5D4809F0EB
:1042300057FE704809F054FE584809F051FE5B489B
:1042400009F04EFE6C4809F04BFE544809F048FE58
:10425000584809F045FE694809F042FE4F4809F008
:104260003FFE564809F03CFE654809F039FE6548B6
:10427000A6E7484809F034FE474809F031FE4548B2
:1042800009F02EFE454809F02BFE5F4809F028FE94
:10429000424809F025FE5D4809F022FE5C4809F01D
:1042A0001FFE5C4809F01CFE5B4809F019FE5B48E4
:1042B00009F016FE5A4809F013FE5A4809F010FE9C
:1042C000594809F00DFE594809F00AFE584809F00E
:1042D00007FE584809F004FE574809F001FE574808
:1042E00009F0FEFD564809F0FBFD564809F0F8FDBF
:1042F000554809F0F5FD554809F0F2FD544809F01C
:10430000EFFD544809F0ECFD534809F0E9FD53482E
:1043100009F0E6FD214809F0E3FD514809F0E0FD10
:104320001C4809F0DDFD64E720464E4909F0ACFF6A
:1043300000287FF4EAAE20464B4909F0A5FF00288B
:104340007FF4E3AE2046494909F09EFF0746002866
:104350007FF4DBAE2046464909F096FF80460028F0
:1043600000F00A81022D00F0DA80424809F0B8FD21
:104370003FE77FF4BCAE404809F0B2FD39E7017079
:10438000F9E700BFD8AF010808B0010824B0010860
:10439000C4B101082CB001086CB0010850AC010890
:1043A000CCB10108A8B00108E0B10108ECB00108E7
:1043B0001CB2010810B1010830B2010864B1010853
:1043C0007CB201089CB20108ACB20108CCB2010871
:1043D000DCB20108FCB201080CB3010838B30108D3
:1043E00008B50108C0AF010854D20108DCAF0108CC
:1043F00098B00108B8B00108F4B001081CB1010878
:1044000070B10108B4B101085CB5010800B601083B
:104410000CB6010880B6010808B7010834B70108D6
:1044200084B70108D4B7010824B801087CB8010892
:10443000E8B8010810B901083CB901089CB90108A5
:1044400004BA010850BA010894BA0108C0BA0108B8
:1044500018BB010870BB0108DCBB010828BC0108BF
:104460005CBC010810B0010818B0010820B00108B8
:104470004CB301087CBC0108D4AF01082046914927
:1044800009F002FF002846D08F4809F029FD8F4827
:1044900009F026FD8C4809F023FD8D4809F020FD28
:1044A0008C4809F01DFD8A4809F01AFD8A4809F078
:1044B00017FD8A4809F014FD854809F011FD884868
:1044C00009F00EFD874809F00BFD814809F008FD51
:1044D000854809F005FD854809F002FD7C4809F092
:1044E000FFFC834809F0FCFC824809F0F9FC824893
:1044F00009F0F6FC814809F0F3FC814809F0F0FC72
:10450000804809F0EDFC804809F0EAFC7F4809F09A
:10451000E7FC7F4854E67F4809F0E2FC58E638465D
:104520007D4901AA09F0E6FE03780446002B3FF41A
:1045300060AE051D413B232B13D8DFE803F0413962
:104540003129121212121212121212121212121215
:1045500012121212121212121212121212124139E5
:1045600031296E4809F0BCFC14F8013F002B3FF4E0
:1045700040AEA542DED13CE62046694909F084FE02
:1045800000284ED0022D1FD0664809F0A9FC30E665
:10459000654809F0A5FC0021442003F059FFE3E73A
:1045A000624809F09DFC0021432003F051FFDBE746
:1045B0005F4809F095FC0021422003F049FFD3E752
:1045C0005C4809F08DFCCFE74046534901AA09F049
:1045D00091FE03780446002B3FF40BAE051D413BD2
:1045E000232B13D8DFE803F03E36422E12121212AC
:1045F000121212121212121212121212121212129B
:1046000012121212121212123E36422E434809F0B2
:1046100067FC14F8013F002B3FF4EBADA542DED15F
:10462000E7E52046444909F02FFE002800F0B1805C
:10463000012D00F0A680AE1E012E1FD93F4809F0C3
:104640004FFCD6E53E4809F04BFC0121442003F025
:10465000FFFEDEE73B4809F043FC0121422003F066
:10466000F7FED6E7384809F03BFCD2E7374809F0B7
:1046700037FC0121432003F0EBFECAE7264901AADB
:10468000002009F037FE09F08FFDB0F5006F80F0D3
:1046900098802F4F022D386000F08A801E4901AAB1
:1046A000002009F027FE064609F0D6FDC1070446A2
:1046B00000F18B80102800F288803546DFF8948066
:1046C00050E000BF4CB301082CB001086CB00108E9
:1046D00050AC010854B30108A8B0010868B3010840
:1046E000ECB00108A4B3010810B10108B8B3010887
:1046F00064B1010804B4010824B4010838B4010805
:1047000058B401086CB401088CB40108A0B40108C5
:10471000CCB40108E0B40108D8AF010884BD010899
:10472000C4B10108ACBD010860BD01083CBD010871
:1047300018BD0108CCBC010884BE0108A4BE010854
:1047400060BE010818BE0108FCBD01083CBE01089E
:10475000003A0320F8390320284609F001FD02350C
:1047600008F8010BAB1B9BB29C42F5D8601CC0F350
:10477000470009F057FD0346AC48FB6009F0B0FB69
:1047800037E54FF0FF32AA4BAA481A6009F0A8FBA0
:104790002FE52046A84909F077FD002861D0012DBA
:1047A00052D0AE1E012E14D9A44809F099FB20E581
:1047B000002009F037FD0346A148FB6009F090FB9B
:1047C00017E5A04809F08CFB13E59F4809F088FB2A
:1047D0000FE59E4901AA002009F08CFD09F0E4FCD8
:1047E000B0F5006F80F0AB80994F022D386000F07B
:1047F0009D8012F0A7F8282112F0A6F801AA93498B
:10480000002009F077FD064609F026FDC2070446A0
:10481000DBD41028D9D83546DFF89C8205E028463D
:1048200009F09EFC023508F8010BAB1B9BB2A342BA
:10483000F5D3601CC0F3470009F0F4FC034685483B
:10484000FB6009F04DFBD4E44FF0FF32804B82480F
:104850001A6009F045FB12F075F8182112F074F88F
:10486000C7E420467D4909F00FFD10B3032D03D0A6
:104870007B4809F035FBBCE4744901AA002009F02B
:1048800039FD7249054601AA002009F033FD0A21CD
:10489000002209F063FD73490446284609F0F4FC40
:1048A000A0B1714B71485C6109F01AFBFFF73EF94A
:1048B0009FE420466E4909F0E7FC0746002842D0F5
:1048C000032D0FD06B4809F00BFB92E428466A4990
:1048D00009F0DAFC002843D0634B6848DC6109F03A
:1048E000FFFAE3E75949002001AA09F003FD6449F2
:1048F000044609F0C9FC002874D040F2DF7401AA14
:104900005249002009F0F6FC054609F0A5FC421EBC
:1049100092B20D2A034661D8DB075FD420462946B0
:10492000FFF75CFB574809F0DBFA62E4002009F06E
:1049300079FC03465448FB6009F0D2FA59E4534825
:1049400009F0CEFA55E42046514909F09DFC06468F
:10495000002851D0022D10D04E4809F0C1FA48E489
:1049600028464D4909F090FC002800F0BD803E4BE0
:104970004A481C6209F0B4FA98E73846334901AA5C
:1049800009F0B8FC451E041D15F8012FA2F12A03F9
:10499000002A3FF42EACA5423FF42BAC1A2B00F2B8
:1049A0000E81DFE813F003010C010C010C010C0176
:1049B0000C010C010C010C010C010C010C010C018F
:1049C0000C010C010C010C010C010C010C010C017F
:1049D0000C010C018B00390098008F00304809F061
:1049E0007FFA06E420462F4909F04EFC002800F02B
:1049F000868040F2E17482E720462B4909F044FCAE
:104A00000746002800F00281022D00F0DC802748D4
:104A100009F066FAFFF7EDBB254809F061FA40F2AC
:104A2000E1702449FFF7DAFAAEE700BF28BF0108BA
:104A3000003A03208CBE010854BF010878BF01086A
:104A4000F0BE0108CCBE010810BF0108D8AF0108B4
:104A5000D4390320ECBF01085CBF010814C0010871
:104A600018C0010878AD01080828032034C00108E7
:104A700078C101087CC101084CC0010854C001087C
:104A8000B8C1010850C20108CCBF0108A0BF01088D
:104A900064C201086CC2010868C0010870C0010846
:104AA00024C20108BCC101081CC3010824C30108B9
:104AB000E0C20108ACC20108CC390320964809F0D5
:104AC0000FFA61E7954809F00BFA40F2E370944958
:104AD000FFF784FA58E7934809F002FA40F2E270CF
:104AE0008F49FFF77BFA4FE728468F4909F0CCFB47
:104AF00068B18E4B8E489C6109F0F2F9D6E62046EB
:104B00008C4909F0C1FB80B140F2E274F7E6284617
:104B1000894909F0B9FB80B1003C18BF0124834BDF
:104B200086481C7409F0DCF9C0E62046844909F087
:104B3000ABFB80B140F2E374E1E62846814909F01D
:104B4000A3FB90B1003C18BF0124784B7E485C74F5
:104B500009F0C6F9AAE620467C4909F095FB90B118
:104B60007B4809F0BDF90024C9E62846794909F0D7
:104B70008BFB60B1003C18BF0124774B77481C7059
:104B800009F0AEF992E6764809F0AAF9EBE7284673
:104B9000744909F079FB002872D0002C69D1724861
:104BA00009F09EF90222614BDA607FE66F4809F056
:104BB00097F940F2DF705A49FFF710FAE4E66848C7
:104BC00009F08EF9E0E63046694901AA09F092FB46
:104BD000451E041D15F8012FA2F12A03002A3FF4F7
:104BE00008ABA5423FF405AB1A2B3ED8DFE803F033
:104BF000343D3D3D3D3D3D3D3D3D3D3D3D3D3D3DEE
:104C00003D3D3D3D3D3D3D30274C1E002046594930
:104C100009F03AFB0646002867D0012D5AD0022D34
:104C20003BD0554809F05CF9FFF7E3BA534809F067
:104C300057F940F2E3705249FFF7D0F9CAE75148FB
:104C400009F04EF940F2E1704D49FFF7C7F9C1E7AD
:104C5000314809F045F9BDE74B4809F041F940F208
:104C6000DF704749FFF7BAF9B4E73D4809F038F972
:104C7000B0E7464809F034F900222C4BDA6015E61B
:104C8000434809F02DF911E6424809F029F940F2AC
:104C9000E2703B49FFF7A2F99CE73549384601AA83
:104CA00009F028FB3C49044609F0EEFA88BB20468F
:104CB0003A4909F0E9FA38B3394C3A4802F0D8FBDE
:104CC000214640F2DF70FFF789F9374809F008F90B
:104CD000FFF78FBA354A334B12689A420CBF3448FB
:104CE000344809F0FDF8FFF784BA2046324909F04C
:104CF000CBFA0746002800F08D80012D66D02F48A2
:104D000009F0EEF8FFF775BA2D4809F0E9F8FFF75A
:104D100070BA2C4C2C48D1E7B8C2010808C301086E
:104D2000ACC20108F4C2010884C0010808280320AD
:104D300088C00108C0C101089CC00108A8C00108C2
:104D4000C4C10108D0C00108E0C00108C8C1010801
:104D5000CCC10108FCC001082804032008C10108D7
:104D600000C2010828C101082CC1010888C201083D
:104D7000D8AF0108D0C30108B4BB0108B0C3010813
:104D800064C3010870C301083CC3010848C101089D
:104D900060C1010890C301082CC4010834C4010893
:104DA000A8AF01085005020870C4010834010320AF
:104DB000DCC3010804C4010894C40108A0C40108AC
:104DC0003CC40108B4AF01086405020801AABB494C
:104DD000304609F08FFABA4809F082F8304603F0FD
:104DE00071FB322011F0D2FD2946422003F030FB46
:104DF00007F050F811F0CAFD2946432003F028FBC4
:104E000007F048F811F0C2FD2946442003F020FBCA
:104E1000FFF7EFB92046AB4909F036FA30B1022D61
:104E200020D0A94809F05CF8FFF7E3B92046A7496C
:104E300009F02AFA002800F0C580012D40F3BD805A
:104E400000209E4901AA09F055FA044600283FF4C3
:104E5000D0A99F4909F018FAE0B19E4809F040F83E
:104E6000FFF7C7B93846954901AA09F043FA451E2C
:104E7000041D15F8012FA2F14103002A3FF4B9A93E
:104E8000A5423FF4B6A9032B00F24683DFE803F006
:104E9000912D240B2046904909F0F6F960B1FDF7F9
:104EA0005BFAFFF7A6B98D4809F01AF840F2E370F3
:104EB0008B49FFF793F8DCE720468A4909F0E4F9CB
:104EC0000646D8B1884809F00BF8FDF705F9874880
:104ED00009F006F8FFF78DB9854809F001F840F2AE
:104EE000E2707F49FFF77AF8C3E7824808F0F8FFDD
:104EF00040F2E1707A49FFF771F8BAE720467E493F
:104F000009F0C2F9002870D07C4808F0E9FFFDF7ED
:104F10000FF94FF47A730446B0FBF3F002A903FBD8
:104F2000104409F049FA0A210346B4FBF1F24FF0AC
:104F30002E09642503F12808E84408F8209CB2FBF8
:104F4000F1F8B4FBF5F54FF0200E4FF0250C0D27CE
:104F500001FB124401FB18220DF12808591C58FAD4
:104F600081F1303501F8205C991C303258FA81F11A
:104F700001F8202CDA1C58FA82F2303402F8204C66
:104F80001A1D58FA82F202F820EC5A1D58FA82F2E1
:104F900002F820CC9A1D073358FA82F258FA83F3AC
:104FA00002F8207C02A803F8206C08F099FFFFF7B4
:104FB00020B9534808F094FF5BE7524808F090FF8F
:104FC000FFF717B92046504909F05EF900287FF431
:104FD00034AF20464D4909F057F928B3022D11D0BE
:104FE0004B4808F07DFFFFF704B92046494909F016
:104FF0004BF9064600B3484808F072FFFDF718FA6F
:10500000FFF7F7B82D49002001AA09F073F94349C9
:10501000044609F039F9E8B1012006F0D9F8404812
:1050200008F05EFFFFF7E5B820463E4909F02CF98D
:10503000F8B10120FFF7E1B820463B4909F024F917
:10504000002800F0BC80032D7ED0384808F048FFCF
:10505000FFF7CFB82046364909F016F9002800F0CE
:105060008880022006F0B4F82D4808F039FFFFF7D9
:10507000C0B820462F4909F007F90028D9D12046A9
:105080002D4909F001F90028D3D120462B4909F018
:10509000FBF806460028CCD12046294909F0F4F84F
:1050A000002800F0A480012D00F09780022D40F32D
:1050B000AA80244808F014FFFFF79BB8D8AF010876
:1050C000C8C4010824C5010830C50108E4C50108A9
:1050D00008B001082CC60108F4CC0108A0C50108DD
:1050E00070C50108FCCC010800CD01080CCD0108F9
:1050F0007CC501084CC5010814CD01081CCD010870
:10510000B8C20108F0C50108E8C5010824B00108CB
:1051100094CE010834CD01083CCD0108D8AD01087A
:10512000E4CE010838CF010854CD01085CCD010858
:10513000F0CE01083CCF010844CF01084CCF010854
:1051400054CF0108ACCF0108BD4901AA304609F08F
:10515000D1F80A2102AA8DF8086009F0FFF89DF83D
:105160000830C4B2012B11D0B64808F0B9FEFFF7E1
:1051700040B82046B44909F087F890B1032006F002
:1051800027F8B24808F0ACFEFFF733B8B04808F093
:10519000A7FE2046FDF7A4FEAE4808F0A1FEFFF7EB
:1051A00028B82046AC4909F06FF800285CD00420EC
:1051B00006F00EF8A54808F093FEFFF71AB820464F
:1051C000A64909F061F8002800F08980032D32D04B
:1051D000A34808F085FEFFF70CB8A24808F080FE4F
:1051E000C82011F0D3FB09F04BFDFFF702B82046B1
:1051F0009D4909F049F80646002843D09B4808F02D
:105200006FFEFEF7F6BF30468D4901AA09F072F82D
:10521000451EC41C15F8012FA2F14103002A3EF4DB
:10522000E8AFA5423EF4E5AF032B00F27981DFE859
:1052300003F0D0473865824901AA002009F05AF8E6
:1052400000230A2102AA8DF8083009F087F89DF89A
:105250000830C4B2012B87D17D4808F041FE2046BA
:10526000FDF7B4FCFEF7C5BF2046814909F00CF8F4
:10527000002868D0052005F0ABFF744808F030FE28
:10528000FEF7B7BF20467B4908F0FEFF002800F07C
:10529000B680022D00F0A180774808F021FEFEF7CD
:1052A000A8BF764808F01CFE0021432003F0D0F888
:1052B000322011F06BFB0121432003F0C9F8A9E76C
:1052C0006F4808F00DFE0021422003F0C1F83220A3
:1052D00011F05CFB0121422003F0BAF89AE7204666
:1052E000684908F0D1FF08B3674808F0F9FD032DBD
:1052F00013D0664808F0F4FDFEF77BBF644808F061
:10530000EFFD0021442003F0A3F8322011F03EFB12
:105310000121442003F09CF87CE7494901AA0020C0
:1053200008F0E8FFFDF78AF9FEF763BF2046594908
:1053300008F0AAFF064698B1574808F0D1FDFDF7DE
:10534000BDFAFEF756BF2046544908F09DFFD8B17C
:10535000062005F03DFF3D4808F0C2FDFEF749BFBD
:1053600020464F4908F090FF00B3042DC1D13449C5
:1053700001AA304608F0BEFFFCF7EEFC88B93548BC
:1053800008F0AEFDFEF735BF2046464908F07CFF29
:10539000A8B1072005F01CFF2C4808F0A1FDFEF77E
:1053A00028BF414808F09CFDFEF723BF20463F4937
:1053B00008F06AFF40B1FCF7FBFDFEF71ABF3C485E
:1053C00008F08EFDFEF715BF3A4808F089FDFEF79C
:1053D00010BF394808F084FD1CE71949304601AA7E
:1053E00008F088FF3549044608F04EFFC8B1012097
:1053F00005F01CFB324808F073FDFEF7FABE2046AC
:10540000304908F041FF002869D000F013FF002860
:1054100060D02D4808F064FD012000F01BFFFEF76E
:10542000E8BE2046294908F02FFF002862D0284610
:1054300005F0FCFA264808F053FDFEF7DABE00BF7F
:10544000D8AF010894CD0108F4CE0108E4CE0108DC
:1054500080CD01088CCD0108F8CE0108A8CD010847
:10546000B4CD01085CCF0108B8D00108C0D0010854
:10547000FCCE01083CD1010844D1010890D00108BC
:105480007CD00108DCCD0108E4CD0108F0CD010895
:10549000A4D0010810CE010818CE010800CF0108E1
:1054A00034CE010804CF010838CE010854CE0108DB
:1054B00008CF01085CCE010830D00108D8AD010842
:1054C00064D10108D0D10108D8D10108F0CE01087B
:1054D00078D10108144808F003FDFEF78ABE13488E
:1054E00008F0FEFC204608F0FBFC114808F0F8FC30
:1054F000FEF77FBE20460F4908F0C6FE38B10320F4
:1055000005F094FA0C4808F0EBFCFEF772BE0B486D
:1055100008F0E6FCFEF76DBE094808F0E1FCA8E4DF
:10552000074808F0DDFC75E6E8D10108FCD1010868
:1055300010D20108F4CE01088CD10108A0D10108D5
:10554000C4C501082DE9F04703780546A3F13002F0
:10555000012A0E46A0B040F28F800022824FCDE992
:105560000B227979012910D00024DFF80082752BF5
:10557000D8F80020CDE90D440A9213D1132E00F083
:105580006E81002020B0BDE8F087701E295C0024E9
:10559000692904BF4FF000420646752BCDE90D4442
:1055A0000A92EBD0295D2246722905EB040900F02E
:1055B000E58000F2458152297FD054297DD0233BDC
:1055C000562B00F23881DFE813F0ED033601AE030D
:1055D0003601360136013601360136013601360113
:1055E0003601360136013601360136013601360103
:1055F00036013601360136013601360136013601F3
:1056000036015B01530336013601A403830376039D
:105610006E031C045B0117040F04F6036D042D04D4
:1056200053046003360136013601B30136013601F9
:1056300099018D0184017A0160013601360136013C
:105640003601360136016D01680146033803360123
:10565000280336015B011D030C03F402E902D602A4
:10566000C00236014B02230236010D02360136011B
:105670000302FC01EA01D9014FF4001142780C91B8
:10568000302A00F0CD804FF48010374F0B9079799D
:10569000012900F0D98000233449722A0968CDE934
:1056A0000D330A9105F1010966D063D8522A02D060
:1056B000542A40F0C08001242246B71A092F40F234
:1056C000BA804FF080434FF0000A601C28440793D3
:1056D000CDF820A008F078FD069004F109002844D8
:1056E00008F038FD99F800308046522B099003D11C
:1056F0004FF00053D0460893404608F08DFD05302A
:1057000000B2B7EB400F40F096800A34013EA6424B
:1057100088BF00270DD9281908F022FD0234E4B211
:1057200020AB53FA87F3B44203F8400C07F10107AA
:10573000F1D308F09FFB10AC01210D4806AE08F034
:10574000AFFB21463046FEF7EDFA022800F08B80D1
:1057500008F09CFB4046069D08F05EFD224601468F
:10576000284601F0B9FE0CE7840103201000032055
:1057700050AC0108742A5ED101242246B71A042FC6
:1057800059D94FF0000A601C2844CDE907AA08F057
:105790000BFD0690201D284408F0DCFC99F8003031
:1057A0008046722B099003D14FF00053D0460893E6
:1057B000404608F031FD052300B203EB40039F4251
:1057C00039D10534013EA64288BF00270DD92819DA
:1057D00008F0C6FC0234E4B220AB53FA87F3B442BB
:1057E00003F8400C07F10107F1D308F043FB10ACBC
:1057F0000121B54806AE08F053FB21463046FEF7BE
:1058000091FA0228A4D108F041FB02E00A2011F02D
:10581000BDF821463046FEF785FA0228F6D099E712
:105820000022AA4F0B92797901290DD0A84B0D9235
:105830001B680E920A930121A64808F0E3FAA0E63D
:1058400074297FF4BCAE99E7721EA95C692900F047
:105850004F8300220124CDE90D220A92A2E62846B8
:1058600001F0A4FF8DE608F011FB02E00A2011F020
:105870008DF821463046FEF755FA0228F6D069E742
:105880001621954808F0BEFA7BE6022ED3D16B783C
:10589000302B0CBF00230123FB7001218A4808F044
:1058A000B1FA6EE6022EC6D16B788C4A303B18BF37
:1058B000012301218448137408F0A4FA61E6022E42
:1058C000B9D16B78302B0CBF0020012002F0FAFD1B
:1058D000E3E712F0D1FB102840F21483804808F06F
:1058E000FFFA4EE6022EA6D16B78303B032BA2D8EE
:1058F000DFE813F0FC02F302F102E70202F044FEDB
:105900000F21002800F08883764808F07BFA0C21EC
:10591000754808F077FA0121744808F073FA0921F4
:10592000734808F06FFA0221724808F06BFA28E613
:10593000B31E062B3FF67FAF012200206E4CA91844
:105940002E4411F8013B00EB8000303B03EB40009C
:10595000DBB2092B8CBF002202F00102A0428CBFF7
:10596000002202F001028E42EBD1002A3FF463AF25
:10597000FEF76EF900287FF45EAF8EE7032E7FF40A
:105980005AAF6878A0F14203022B3FF654AFAB78D0
:10599000302B0CBF0021012102F05AFD7DE7782257
:1059A000564B8DF84020D3F890050DF1410108F0D9
:1059B000DBFA0D230A2110A88DF8493008F022FAED
:1059C000DFE5FEF7B3F801213F4808F01BFAD8E500
:1059D000022E7FF430AF6B78302B0CBF00230123F5
:1059E0007B715AE7052E7FF426AF01263B4CA819A0
:1059F000666108F0B5FB0346E81CE36108F0B0FB04
:105A00002062FEF793F831462F4808F0FBF9B8E51D
:105A10003B4808F065FA4021304809F0A9FE08F03B
:105A200075FA384C2D4809F0ADFE08F06FFA206881
:105A300011F05EFC08F06AFA2068334C11F06CFC3F
:105A400008F064FA206811F053FC08F05FFA20684F
:105A500011F062FC08F05AFA1B4808F041FA90E590
:105A6000022E7FF4E8AE6B78423B022B3FF6E3AEAA
:105A700000234FF400124FF48011BB70CDE90B12DC
:105A8000099340F281123B7000234FF01409CDE9D5
:105A90000623DFF83C8010AC06AE002002F012FDB9
:105AA000FEF7A6F9FEF742F8642010F06FFF687861
:105AB000012102F0EBFC6878012102F0C9FC4846A4
:105AC00010F064FF25E000BF50AC01088401032002
:105AD0001000032028AB0108C8D2010808280320C1
